{
  "contractName": "DecentralBank",
  "abi": [
    {
      "inputs": [
        {
          "internalType": "contract RWD",
          "name": "_rwd",
          "type": "address"
        },
        {
          "internalType": "contract Tether",
          "name": "_tether",
          "type": "address"
        }
      ],
      "stateMutability": "nonpayable",
      "type": "constructor"
    },
    {
      "inputs": [
        {
          "internalType": "address",
          "name": "",
          "type": "address"
        }
      ],
      "name": "hasStacked",
      "outputs": [
        {
          "internalType": "bool",
          "name": "",
          "type": "bool"
        }
      ],
      "stateMutability": "view",
      "type": "function",
      "constant": true
    },
    {
      "inputs": [
        {
          "internalType": "address",
          "name": "",
          "type": "address"
        }
      ],
      "name": "isStacking",
      "outputs": [
        {
          "internalType": "bool",
          "name": "",
          "type": "bool"
        }
      ],
      "stateMutability": "view",
      "type": "function",
      "constant": true
    },
    {
      "inputs": [],
      "name": "name",
      "outputs": [
        {
          "internalType": "string",
          "name": "",
          "type": "string"
        }
      ],
      "stateMutability": "view",
      "type": "function",
      "constant": true
    },
    {
      "inputs": [],
      "name": "owner",
      "outputs": [
        {
          "internalType": "address",
          "name": "",
          "type": "address"
        }
      ],
      "stateMutability": "view",
      "type": "function",
      "constant": true
    },
    {
      "inputs": [],
      "name": "rwd",
      "outputs": [
        {
          "internalType": "contract RWD",
          "name": "",
          "type": "address"
        }
      ],
      "stateMutability": "view",
      "type": "function",
      "constant": true
    },
    {
      "inputs": [
        {
          "internalType": "uint256",
          "name": "",
          "type": "uint256"
        }
      ],
      "name": "stackers",
      "outputs": [
        {
          "internalType": "address",
          "name": "",
          "type": "address"
        }
      ],
      "stateMutability": "view",
      "type": "function",
      "constant": true
    },
    {
      "inputs": [
        {
          "internalType": "address",
          "name": "",
          "type": "address"
        }
      ],
      "name": "stackingBalance",
      "outputs": [
        {
          "internalType": "uint256",
          "name": "",
          "type": "uint256"
        }
      ],
      "stateMutability": "view",
      "type": "function",
      "constant": true
    },
    {
      "inputs": [],
      "name": "tether",
      "outputs": [
        {
          "internalType": "contract Tether",
          "name": "",
          "type": "address"
        }
      ],
      "stateMutability": "view",
      "type": "function",
      "constant": true
    },
    {
      "inputs": [
        {
          "internalType": "uint256",
          "name": "_amount",
          "type": "uint256"
        }
      ],
      "name": "stakeTokens",
      "outputs": [],
      "stateMutability": "nonpayable",
      "type": "function"
    },
    {
      "inputs": [],
      "name": "unstakeTokens",
      "outputs": [],
      "stateMutability": "nonpayable",
      "type": "function"
    },
    {
      "inputs": [],
      "name": "issueTokens",
      "outputs": [],
      "stateMutability": "nonpayable",
      "type": "function"
    }
  ],
  "bytecode": "0x60806040526040518060400160405280600e81526020017f446563656e7472616c2042616e6b000000000000000000000000000000000000815250600190816200004a9190620003c2565b503480156200005857600080fd5b50604051620016803803806200168083398181016040528101906200007e91906200056c565b81600360006101000a81548173ffffffffffffffffffffffffffffffffffffffff021916908373ffffffffffffffffffffffffffffffffffffffff16021790555080600260006101000a81548173ffffffffffffffffffffffffffffffffffffffff021916908373ffffffffffffffffffffffffffffffffffffffff160217905550336000806101000a81548173ffffffffffffffffffffffffffffffffffffffff021916908373ffffffffffffffffffffffffffffffffffffffff1602179055505050620005b3565b600081519050919050565b7f4e487b7100000000000000000000000000000000000000000000000000000000600052604160045260246000fd5b7f4e487b7100000000000000000000000000000000000000000000000000000000600052602260045260246000fd5b60006002820490506001821680620001ca57607f821691505b602082108103620001e057620001df62000182565b5b50919050565b60008190508160005260206000209050919050565b60006020601f8301049050919050565b600082821b905092915050565b6000600883026200024a7fffffffffffffffffffffffffffffffffffffffffffffffffffffffffffffffff826200020b565b6200025686836200020b565b95508019841693508086168417925050509392505050565b6000819050919050565b6000819050919050565b6000620002a36200029d62000297846200026e565b62000278565b6200026e565b9050919050565b6000819050919050565b620002bf8362000282565b620002d7620002ce82620002aa565b84845462000218565b825550505050565b600090565b620002ee620002df565b620002fb818484620002b4565b505050565b5b81811015620003235762000317600082620002e4565b60018101905062000301565b5050565b601f82111562000372576200033c81620001e6565b6200034784620001fb565b8101602085101562000357578190505b6200036f6200036685620001fb565b83018262000300565b50505b505050565b600082821c905092915050565b6000620003976000198460080262000377565b1980831691505092915050565b6000620003b2838362000384565b9150826002028217905092915050565b620003cd8262000148565b67ffffffffffffffff811115620003e957620003e862000153565b5b620003f58254620001b1565b6200040282828562000327565b600060209050601f8311600181146200043a576000841562000425578287015190505b620004318582620003a4565b865550620004a1565b601f1984166200044a86620001e6565b60005b8281101562000474578489015182556001820191506020850194506020810190506200044d565b8683101562000494578489015162000490601f89168262000384565b8355505b6001600288020188555050505b505050505050565b600080fd5b600073ffffffffffffffffffffffffffffffffffffffff82169050919050565b6000620004db82620004ae565b9050919050565b6000620004ef82620004ce565b9050919050565b6200050181620004e2565b81146200050d57600080fd5b50565b6000815190506200052181620004f6565b92915050565b60006200053482620004ce565b9050919050565b620005468162000527565b81146200055257600080fd5b50565b60008151905062000566816200053b565b92915050565b60008060408385031215620005865762000585620004a9565b5b6000620005968582860162000510565b9250506020620005a98582860162000555565b9150509250929050565b6110bd80620005c36000396000f3fe608060405234801561001057600080fd5b50600436106100a95760003560e01c806360ab58521161007157806360ab5852146101685780637547c7a314610172578063781972891461018e5780638da5cb5b146101be578063a5ce413b146101dc578063fb453e23146101e6576100a9565b806306fdde03146100ae57806307e9417a146100cc5780631a8972d3146100fc57806332ac90cf1461011a5780635efc071a1461014a575b600080fd5b6100b6610216565b6040516100c39190610a9b565b60405180910390f35b6100e660048036038101906100e19190610b20565b6102a4565b6040516100f39190610b68565b60405180910390f35b6101046102c4565b6040516101119190610be2565b60405180910390f35b610134600480360381019061012f9190610b20565b6102ea565b6040516101419190610b68565b60405180910390f35b61015261030a565b60405161015f9190610c1e565b60405180910390f35b610170610330565b005b61018c60048036038101906101879190610c6f565b610524565b005b6101a860048036038101906101a39190610b20565b6107c8565b6040516101b59190610cab565b60405180910390f35b6101c66107e0565b6040516101d39190610cd5565b60405180910390f35b6101e4610804565b005b61020060048036038101906101fb9190610c6f565b6109cc565b60405161020d9190610cd5565b60405180910390f35b6001805461022390610d1f565b80601f016020809104026020016040519081016040528092919081815260200182805461024f90610d1f565b801561029c5780601f106102715761010080835404028352916020019161029c565b820191906000526020600020905b81548152906001019060200180831161027f57829003601f168201915b505050505081565b60076020528060005260406000206000915054906101000a900460ff1681565b600360009054906101000a900473ffffffffffffffffffffffffffffffffffffffff1681565b60066020528060005260406000206000915054906101000a900460ff1681565b600260009054906101000a900473ffffffffffffffffffffffffffffffffffffffff1681565b60008054906101000a900473ffffffffffffffffffffffffffffffffffffffff1673ffffffffffffffffffffffffffffffffffffffff163373ffffffffffffffffffffffffffffffffffffffff16146103be576040517f08c379a00000000000000000000000000000000000000000000000000000000081526004016103b590610d9c565b60405180910390fd5b60005b600480549050811015610521576000600482815481106103e4576103e3610dbc565b5b9060005260206000200160009054906101000a900473ffffffffffffffffffffffffffffffffffffffff16905060006009600560008473ffffffffffffffffffffffffffffffffffffffff1673ffffffffffffffffffffffffffffffffffffffff1681526020019081526020016000205461045f9190610e49565b9050600081111561050c57600360009054906101000a900473ffffffffffffffffffffffffffffffffffffffff1673ffffffffffffffffffffffffffffffffffffffff1663a9059cbb83836040518363ffffffff1660e01b81526004016104c7929190610e7a565b6020604051808303816000875af11580156104e6573d6000803e3d6000fd5b505050506040513d601f19601f8201168201806040525081019061050a9190610ecf565b505b5050808061051990610efc565b9150506103c1565b50565b60008111610567576040517f08c379a000000000000000000000000000000000000000000000000000000000815260040161055e90610f90565b60405180910390fd5b600260009054906101000a900473ffffffffffffffffffffffffffffffffffffffff1673ffffffffffffffffffffffffffffffffffffffff166323b872dd3330846040518463ffffffff1660e01b81526004016105c693929190610fb0565b6020604051808303816000875af11580156105e5573d6000803e3d6000fd5b505050506040513d601f19601f820116820180604052508101906106099190610ecf565b5080600560003373ffffffffffffffffffffffffffffffffffffffff1673ffffffffffffffffffffffffffffffffffffffff16815260200190815260200160002060008282546106599190610fe7565b925050819055506001600760003373ffffffffffffffffffffffffffffffffffffffff1673ffffffffffffffffffffffffffffffffffffffff16815260200190815260200160002060006101000a81548160ff0219169083151502179055506001600660003373ffffffffffffffffffffffffffffffffffffffff1673ffffffffffffffffffffffffffffffffffffffff16815260200190815260200160002060006101000a81548160ff021916908315150217905550600660003373ffffffffffffffffffffffffffffffffffffffff1673ffffffffffffffffffffffffffffffffffffffff16815260200190815260200160002060009054906101000a900460ff166107c5576004339080600181540180825580915050600190039060005260206000200160009091909190916101000a81548173ffffffffffffffffffffffffffffffffffffffff021916908373ffffffffffffffffffffffffffffffffffffffff1602179055505b50565b60056020528060005260406000206000915090505481565b60008054906101000a900473ffffffffffffffffffffffffffffffffffffffff1681565b6000600560003373ffffffffffffffffffffffffffffffffffffffff1673ffffffffffffffffffffffffffffffffffffffff1681526020019081526020016000205490506000811161088b576040517f08c379a000000000000000000000000000000000000000000000000000000000815260040161088290611067565b60405180910390fd5b600260009054906101000a900473ffffffffffffffffffffffffffffffffffffffff1673ffffffffffffffffffffffffffffffffffffffff1663a9059cbb33836040518363ffffffff1660e01b81526004016108e8929190610e7a565b6020604051808303816000875af1158015610907573d6000803e3d6000fd5b505050506040513d601f19601f8201168201806040525081019061092b9190610ecf565b506000600560003373ffffffffffffffffffffffffffffffffffffffff1673ffffffffffffffffffffffffffffffffffffffff168152602001908152602001600020819055506000600760003373ffffffffffffffffffffffffffffffffffffffff1673ffffffffffffffffffffffffffffffffffffffff16815260200190815260200160002060006101000a81548160ff02191690831515021790555050565b600481815481106109dc57600080fd5b906000526020600020016000915054906101000a900473ffffffffffffffffffffffffffffffffffffffff1681565b600081519050919050565b600082825260208201905092915050565b60005b83811015610a45578082015181840152602081019050610a2a565b60008484015250505050565b6000601f19601f8301169050919050565b6000610a6d82610a0b565b610a778185610a16565b9350610a87818560208601610a27565b610a9081610a51565b840191505092915050565b60006020820190508181036000830152610ab58184610a62565b905092915050565b600080fd5b600073ffffffffffffffffffffffffffffffffffffffff82169050919050565b6000610aed82610ac2565b9050919050565b610afd81610ae2565b8114610b0857600080fd5b50565b600081359050610b1a81610af4565b92915050565b600060208284031215610b3657610b35610abd565b5b6000610b4484828501610b0b565b91505092915050565b60008115159050919050565b610b6281610b4d565b82525050565b6000602082019050610b7d6000830184610b59565b92915050565b6000819050919050565b6000610ba8610ba3610b9e84610ac2565b610b83565b610ac2565b9050919050565b6000610bba82610b8d565b9050919050565b6000610bcc82610baf565b9050919050565b610bdc81610bc1565b82525050565b6000602082019050610bf76000830184610bd3565b92915050565b6000610c0882610baf565b9050919050565b610c1881610bfd565b82525050565b6000602082019050610c336000830184610c0f565b92915050565b6000819050919050565b610c4c81610c39565b8114610c5757600080fd5b50565b600081359050610c6981610c43565b92915050565b600060208284031215610c8557610c84610abd565b5b6000610c9384828501610c5a565b91505092915050565b610ca581610c39565b82525050565b6000602082019050610cc06000830184610c9c565b92915050565b610ccf81610ae2565b82525050565b6000602082019050610cea6000830184610cc6565b92915050565b7f4e487b7100000000000000000000000000000000000000000000000000000000600052602260045260246000fd5b60006002820490506001821680610d3757607f821691505b602082108103610d4a57610d49610cf0565b5b50919050565b7f63616c6c6572206d75737420626520746865206f776e65720000000000000000600082015250565b6000610d86601883610a16565b9150610d9182610d50565b602082019050919050565b60006020820190508181036000830152610db581610d79565b9050919050565b7f4e487b7100000000000000000000000000000000000000000000000000000000600052603260045260246000fd5b7f4e487b7100000000000000000000000000000000000000000000000000000000600052601260045260246000fd5b7f4e487b7100000000000000000000000000000000000000000000000000000000600052601160045260246000fd5b6000610e5482610c39565b9150610e5f83610c39565b925082610e6f57610e6e610deb565b5b828204905092915050565b6000604082019050610e8f6000830185610cc6565b610e9c6020830184610c9c565b9392505050565b610eac81610b4d565b8114610eb757600080fd5b50565b600081519050610ec981610ea3565b92915050565b600060208284031215610ee557610ee4610abd565b5b6000610ef384828501610eba565b91505092915050565b6000610f0782610c39565b91507fffffffffffffffffffffffffffffffffffffffffffffffffffffffffffffffff8203610f3957610f38610e1a565b5b600182019050919050565b7f63616e6e6f74207374616b65203020746f6b656e730000000000000000000000600082015250565b6000610f7a601583610a16565b9150610f8582610f44565b602082019050919050565b60006020820190508181036000830152610fa981610f6d565b9050919050565b6000606082019050610fc56000830186610cc6565b610fd26020830185610cc6565b610fdf6040830184610c9c565b949350505050565b6000610ff282610c39565b9150610ffd83610c39565b925082820190508082111561101557611014610e1a565b5b92915050565b7f63616e6e6f7420756e7374616b65203020746f6b656e73000000000000000000600082015250565b6000611051601783610a16565b915061105c8261101b565b602082019050919050565b6000602082019050818103600083015261108081611044565b905091905056fea26469706673582212209e46fdc1404ead002a24cf7b6fe4e9aa65ce8a1517b2a93413159f496d77142f64736f6c63430008110033",
  "immutableReferences": {},
  "source": "pragma solidity >0.8.16;\r\n\r\nimport \"./Tether.sol\";\r\nimport \"./RWD.sol\";\r\n\r\ncontract DecentralBank {\r\n    address public owner;\r\n    string public name = \"Decentral Bank\";\r\n    Tether public tether;\r\n    RWD public rwd;\r\n\r\n    address[] public stackers;\r\n    mapping(address => uint256) public stackingBalance;\r\n    mapping(address => bool) public hasStacked;\r\n    mapping(address => bool) public isStacking;\r\n\r\n    constructor(RWD _rwd, Tether _tether) {\r\n        rwd = _rwd;\r\n        tether = _tether;\r\n        owner = msg.sender;\r\n    }\r\n\r\n    function stakeTokens(uint256 _amount) public {\r\n        //require stacking amount to be greater than 0\r\n        require(_amount > 0, \"cannot stake 0 tokens\");\r\n\r\n        //tansfer tether tokens to this contact address for staking\r\n        tether.transferFrom(msg.sender, address(this), _amount);\r\n\r\n        //update stacking balance\r\n        stackingBalance[msg.sender] += _amount;\r\n\r\n        isStacking[msg.sender] = true;\r\n        hasStacked[msg.sender] = true;\r\n\r\n        if (!hasStacked[msg.sender]) {\r\n            stackers.push(msg.sender);\r\n        }\r\n    }\r\n\r\n    function unstakeTokens() public {\r\n        uint256 balance = stackingBalance[msg.sender];\r\n        require(balance > 0, \"cannot unstake 0 tokens\");\r\n        tether.transfer(msg.sender, balance);\r\n        stackingBalance[msg.sender] = 0;\r\n        isStacking[msg.sender] = false;\r\n    }\r\n\r\n    function issueTokens() public {\r\n        // require only the owner to issue tokens\r\n        require(msg.sender == owner, \"caller must be the owner\");\r\n        for (uint256 i = 0; i < stackers.length; i++) {\r\n            address recipient = stackers[i];\r\n            uint256 balance = stackingBalance[recipient] / 9;\r\n            if (balance > 0) {\r\n                rwd.transfer(recipient, balance);\r\n            }\r\n        }\r\n    }\r\n}\r\n",
  "sourcePath": "C:\\Users\\acer\\Blockchain Dev\\yield-farming-staking-dapp\\src\\contracts\\DecentralBank.sol",
  "compiler": {
    "name": "solc",
    "version": "0.8.17+commit.8df45f5f.Emscripten.clang"
  },
  "schemaVersion": "3.4.9",
  "updatedAt": "2022-09-17T19:47:00.617Z",
  "networkType": "ethereum",
  "devdoc": {
    "kind": "dev",
    "methods": {},
    "version": 1
  },
  "userdoc": {
    "kind": "user",
    "methods": {},
    "version": 1
  }
}