{
  "contractName": "DecentralBank",
  "abi": [
    {
      "inputs": [
        {
          "internalType": "contract Token",
          "name": "_token",
          "type": "address"
        }
      ],
      "stateMutability": "nonpayable",
      "type": "constructor"
    },
    {
      "anonymous": false,
      "inputs": [
        {
          "indexed": true,
          "internalType": "address",
          "name": "user",
          "type": "address"
        },
        {
          "indexed": false,
          "internalType": "uint256",
          "name": "etherAmount",
          "type": "uint256"
        },
        {
          "indexed": false,
          "internalType": "uint256",
          "name": "timeStart",
          "type": "uint256"
        }
      ],
      "name": "DepositTokens",
      "type": "event"
    },
    {
      "anonymous": false,
      "inputs": [
        {
          "indexed": true,
          "internalType": "address",
          "name": "user",
          "type": "address"
        },
        {
          "indexed": false,
          "internalType": "uint256",
          "name": "etherAmount",
          "type": "uint256"
        },
        {
          "indexed": false,
          "internalType": "uint256",
          "name": "depositTime",
          "type": "uint256"
        },
        {
          "indexed": false,
          "internalType": "uint256",
          "name": "interest",
          "type": "uint256"
        }
      ],
      "name": "WithDraw",
      "type": "event"
    },
    {
      "inputs": [
        {
          "internalType": "address",
          "name": "",
          "type": "address"
        }
      ],
      "name": "etherBalanceOf",
      "outputs": [
        {
          "internalType": "uint256",
          "name": "",
          "type": "uint256"
        }
      ],
      "stateMutability": "view",
      "type": "function",
      "constant": true
    },
    {
      "inputs": [
        {
          "internalType": "address",
          "name": "",
          "type": "address"
        }
      ],
      "name": "mintedBalanceOf",
      "outputs": [
        {
          "internalType": "uint256",
          "name": "",
          "type": "uint256"
        }
      ],
      "stateMutability": "view",
      "type": "function",
      "constant": true
    },
    {
      "inputs": [],
      "name": "deposit",
      "outputs": [],
      "stateMutability": "payable",
      "type": "function",
      "payable": true
    },
    {
      "inputs": [],
      "name": "withDraw",
      "outputs": [],
      "stateMutability": "nonpayable",
      "type": "function"
    }
  ],
  "bytecode": "0x608060405234801561001057600080fd5b50604051610cdd380380610cdd833981810160405281019061003291906100ed565b806000806101000a81548173ffffffffffffffffffffffffffffffffffffffff021916908373ffffffffffffffffffffffffffffffffffffffff1602179055505061011a565b600080fd5b600073ffffffffffffffffffffffffffffffffffffffff82169050919050565b60006100a88261007d565b9050919050565b60006100ba8261009d565b9050919050565b6100ca816100af565b81146100d557600080fd5b50565b6000815190506100e7816100c1565b92915050565b60006020828403121561010357610102610078565b5b6000610111848285016100d8565b91505092915050565b610bb4806101296000396000f3fe60806040526004361061003f5760003560e01c80630fdb1c1014610044578063179fc99f1461005b5780634d74817f14610098578063d0e30db0146100d5575b600080fd5b34801561005057600080fd5b506100596100df565b005b34801561006757600080fd5b50610082600480360381019061007d91906107d1565b61050b565b60405161008f9190610817565b60405180910390f35b3480156100a457600080fd5b506100bf60048036038101906100ba91906107d1565b610523565b6040516100cc9190610817565b60405180910390f35b6100dd61053b565b005b60011515600460003373ffffffffffffffffffffffffffffffffffffffff1673ffffffffffffffffffffffffffffffffffffffff16815260200190815260200160002060009054906101000a900460ff16151514610172576040517f08c379a00000000000000000000000000000000000000000000000000000000081526004016101699061088f565b60405180910390fd5b6000600160003373ffffffffffffffffffffffffffffffffffffffff1673ffffffffffffffffffffffffffffffffffffffff1681526020019081526020016000205490506000600360003373ffffffffffffffffffffffffffffffffffffffff1673ffffffffffffffffffffffffffffffffffffffff168152602001908152602001600020544261020391906108de565b90506000662386f26fc10000600160003373ffffffffffffffffffffffffffffffffffffffff1673ffffffffffffffffffffffffffffffffffffffff168152602001908152602001600020546102599190610941565b6301e337316102689190610972565b9050600082826102789190610972565b90503373ffffffffffffffffffffffffffffffffffffffff166108fc600160003373ffffffffffffffffffffffffffffffffffffffff1673ffffffffffffffffffffffffffffffffffffffff168152602001908152602001600020549081150290604051600060405180830381858888f193505050501580156102ff573d6000803e3d6000fd5b5060008054906101000a900473ffffffffffffffffffffffffffffffffffffffff1673ffffffffffffffffffffffffffffffffffffffff166340c10f1933836040518363ffffffff1660e01b815260040161035b9291906109c3565b600060405180830381600087803b15801561037557600080fd5b505af1158015610389573d6000803e3d6000fd5b5050505080600260003373ffffffffffffffffffffffffffffffffffffffff1673ffffffffffffffffffffffffffffffffffffffff168152602001908152602001600020819055506000600160003373ffffffffffffffffffffffffffffffffffffffff1673ffffffffffffffffffffffffffffffffffffffff168152602001908152602001600020819055506000600360003373ffffffffffffffffffffffffffffffffffffffff1673ffffffffffffffffffffffffffffffffffffffff168152602001908152602001600020819055506000600460003373ffffffffffffffffffffffffffffffffffffffff1673ffffffffffffffffffffffffffffffffffffffff16815260200190815260200160002060006101000a81548160ff0219169083151502179055503373ffffffffffffffffffffffffffffffffffffffff167fbf79b1192913bd26b5198d852f8a38b4852fa1ac348957e63ffecd43ad427b588585846040516104fd939291906109ec565b60405180910390a250505050565b60016020528060005260406000206000915090505481565b60026020528060005260406000206000915090505481565b60001515600460003373ffffffffffffffffffffffffffffffffffffffff1673ffffffffffffffffffffffffffffffffffffffff16815260200190815260200160002060009054906101000a900460ff161515146105ce576040517f08c379a00000000000000000000000000000000000000000000000000000000081526004016105c590610a6f565b60405180910390fd5b662386f26fc10000341015610618576040517f08c379a000000000000000000000000000000000000000000000000000000000815260040161060f90610b01565b60405180910390fd5b34600160003373ffffffffffffffffffffffffffffffffffffffff1673ffffffffffffffffffffffffffffffffffffffff16815260200190815260200160002060008282546106679190610b21565b9250508190555042600360003373ffffffffffffffffffffffffffffffffffffffff1673ffffffffffffffffffffffffffffffffffffffff16815260200190815260200160002060008282546106bd9190610b21565b925050819055506001600460003373ffffffffffffffffffffffffffffffffffffffff1673ffffffffffffffffffffffffffffffffffffffff16815260200190815260200160002060006101000a81548160ff0219169083151502179055503373ffffffffffffffffffffffffffffffffffffffff167f27a52c428039d1effe188654b6d484ec539aefbdd8d66178f5df05b8fde8b22a3442604051610764929190610b55565b60405180910390a2565b600080fd5b600073ffffffffffffffffffffffffffffffffffffffff82169050919050565b600061079e82610773565b9050919050565b6107ae81610793565b81146107b957600080fd5b50565b6000813590506107cb816107a5565b92915050565b6000602082840312156107e7576107e661076e565b5b60006107f5848285016107bc565b91505092915050565b6000819050919050565b610811816107fe565b82525050565b600060208201905061082c6000830184610808565b92915050565b600082825260208201905092915050565b7f4572726f723a206e6f2070726576696f7573206465706f736974000000000000600082015250565b6000610879601a83610832565b915061088482610843565b602082019050919050565b600060208201905081810360008301526108a88161086c565b9050919050565b7f4e487b7100000000000000000000000000000000000000000000000000000000600052601160045260246000fd5b60006108e9826107fe565b91506108f4836107fe565b925082820390508181111561090c5761090b6108af565b5b92915050565b7f4e487b7100000000000000000000000000000000000000000000000000000000600052601260045260246000fd5b600061094c826107fe565b9150610957836107fe565b92508261096757610966610912565b5b828204905092915050565b600061097d826107fe565b9150610988836107fe565b9250828202610996816107fe565b915082820484148315176109ad576109ac6108af565b5b5092915050565b6109bd81610793565b82525050565b60006040820190506109d860008301856109b4565b6109e56020830184610808565b9392505050565b6000606082019050610a016000830186610808565b610a0e6020830185610808565b610a1b6040830184610808565b949350505050565b7f4572726f723a206465706f73697420616c726561647920616374697665000000600082015250565b6000610a59601d83610832565b9150610a6482610a23565b602082019050919050565b60006020820190508181036000830152610a8881610a4c565b9050919050565b7f4572726f723a206465706f736974206d757374206265203e3d20302e3031206560008201527f7468000000000000000000000000000000000000000000000000000000000000602082015250565b6000610aeb602283610832565b9150610af682610a8f565b604082019050919050565b60006020820190508181036000830152610b1a81610ade565b9050919050565b6000610b2c826107fe565b9150610b37836107fe565b9250828201905080821115610b4f57610b4e6108af565b5b92915050565b6000604082019050610b6a6000830185610808565b610b776020830184610808565b939250505056fea2646970667358221220b79ef5de44eaf9f6f4c969362cf91867dfd8b71c91b8c3d616e691059eee6f5a64736f6c63430008110033",
  "immutableReferences": {},
  "source": "pragma solidity >0.8.16;\r\n\r\nimport \"./Token.sol\";\r\n\r\ncontract DecentralBank {\r\n    Token private token;\r\n\r\n    mapping(address => uint256) public etherBalanceOf;\r\n    mapping(address => uint256) public mintedBalanceOf;\r\n    mapping(address => uint256) depositStart;\r\n    mapping(address => bool) isDeposited;\r\n\r\n    //events\r\n    event DepositTokens(\r\n        address indexed user,\r\n        uint256 etherAmount,\r\n        uint256 timeStart\r\n    );\r\n    event WithDraw(\r\n        address indexed user,\r\n        uint256 etherAmount,\r\n        uint256 depositTime,\r\n        uint256 interest\r\n    );\r\n\r\n    constructor(Token _token) {\r\n        token = _token;\r\n    }\r\n\r\n    //depositTokens function\r\n    function deposit() public payable {\r\n        require(\r\n            isDeposited[msg.sender] == false,\r\n            \"Error: deposit already active\"\r\n        );\r\n        require(msg.value >= 1e16, \"Error: deposit must be >= 0.01 eth\");\r\n\r\n        etherBalanceOf[msg.sender] += msg.value;\r\n        depositStart[msg.sender] += block.timestamp;\r\n        isDeposited[msg.sender] = true;\r\n\r\n        emit DepositTokens(msg.sender, msg.value, block.timestamp);\r\n    }\r\n\r\n    //withDraw function\r\n    function withDraw() public {\r\n        require(isDeposited[msg.sender] == true, \"Error: no previous deposit\");\r\n        uint256 userBalance = etherBalanceOf[msg.sender];\r\n        uint256 depositTime = block.timestamp - depositStart[msg.sender];\r\n\r\n        uint256 interestPerSecond = 31668017 *\r\n            (etherBalanceOf[msg.sender] / 1e16);\r\n        uint256 interest = interestPerSecond * depositTime;\r\n\r\n        payable(msg.sender).transfer(etherBalanceOf[msg.sender]);\r\n        token.mint(msg.sender, interest);\r\n\r\n        mintedBalanceOf[msg.sender] = interest;\r\n        etherBalanceOf[msg.sender] = 0;\r\n        depositStart[msg.sender] = 0;\r\n        isDeposited[msg.sender] = false;\r\n\r\n        emit WithDraw(\r\n            msg.sender,\r\n            userBalance,\r\n            depositTime,\r\n            interest\r\n        );\r\n    }\r\n}\r\n",
  "sourcePath": "C:\\Users\\acer\\Blockchain Dev\\yield-farming-staking-dapp\\src\\contracts\\DecentralBank.sol",
  "compiler": {
    "name": "solc",
    "version": "0.8.17+commit.8df45f5f.Emscripten.clang"
  },
  "schemaVersion": "3.4.9",
  "updatedAt": "2022-09-25T20:37:18.108Z",
  "networkType": "ethereum",
  "devdoc": {
    "kind": "dev",
    "methods": {},
    "version": 1
  },
  "userdoc": {
    "kind": "user",
    "methods": {},
    "version": 1
  }
}